:020000040800F2
:1000000000000220511C0008710900087309000853
:100010007509000877090008790900080000000048
:100020000000000000000000000000007B09000844
:100030007D090008000000007F0900088109000810
:10004000A11C0008A11C0008A11C0008A11C00089C
:10005000A11C0008A11C0008A11C0008A11C00088C
:10006000A11C0008A11C0008A11C0008A11C00087C
:10007000A11C0008A11C0008A11C0008A11C00086C
:10008000A11C0008A11C0008A11C0008A11C00085C
:10009000A11C0008A11C0008A11C0008A11C00084C
:1000A000A11C0008A11C0008A11C0008A11C00083C
:1000B000A11C0008A11C0008A11C0008A11C00082C
:1000C000A11C0008A11C0008A11C0008A11C00081C
:1000D000A11C0008A11C0008A11C0008A11C00080C
:1000E000A11C0008A11C000800000000A11C0008C1
:1000F000A11C0008A11C0008A11C0008A11C0008EC
:10010000A11C0008A11C0008A11C0008A11C0008DB
:10011000A11C0008A11C0008A11C0008A11C0008CB
:10012000A11C0008A11C0008A11C0008A11C0008BB
:10013000A11C0008A11C0008A11C0008A11C0008AB
:1001400000000000000000000000000000000000AF
:10015000A11C0008A11C0008A11C0008A11C00088B
:10016000A11C0008A11C0008A11C0008A11C00087B
:10017000A11C0008A11C0008A11C0008A11C00086B
:10018000A11C0008A11C0008A11C0008A11C00085B
:10019000A11C0008A11C0008A11C0008A11C00084B
:1001A000A11C0008A11C0008A11C0008A11C00083B
:1001B000A11C0008A11C0008A11C0008A11C00082B
:1001C000A11C0008A11C0008A11C0008A11C00081B
:1001D000A11C0008A11C0008A11C0008A11C00080B
:1001E000A11C0008A11C0008A11C0008A11C0008FB
:1001F000A11C0008A11C0008A11C0008A11C0008EB
:10020000A11C0008A11C0008A11C0008A11C0008DA
:10021000A11C0008A11C0008A11C0008A11C0008CA
:10022000A11C0008A11C0008A11C0008000000007F
:10023000A11C0008A11C000800000000A11C00086F
:10024000A11C0008A11C0008A11C0008A11C00089A
:10025000A11C0008A11C0008A11C0008A11C00088A
:10026000A11C0008A11C0008A11C0008A11C00087A
:10027000A11C0008A11C0008A11C0008000000002F
:10028000A11C0008A11C0008A11C0008000000001F
:1002900000000000A11C000810B5054C237833B9FC
:1002A000044B13B10448AFF300800123237010BD49
:1002B0003C04002000000000081E000808B5034BA5
:1002C0001BB103490348AFF3008008BD00000000E4
:1002D00040040020081E000880B59CB0BFF34F8F7B
:1002E000BFF36F8F684B0021C3F85012BFF34F8FDD
:1002F000BFF36F8F5A6942F400325A61BFF34F8FD8
:10030000BFF36F8FC3F88410BFF34F8FD3F88020F3
:1003100043F6E076C2F3C904C2F34E32A507520198
:1003200002EA060C284621464CEA0007013900F192
:100330004040C3F860724F1CF6D1203A12F1200FF2
:10034000EED1BFF34F8F5A6942F480325A61BFF346
:100350004F8FBFF36F8F00F079FB022000F016FD86
:1003600000230093494BDA6A22F00102DA62DB6A69
:1003700003F001030093464B9A6942F440429A61AC
:100380009A6902F440420092009A9A699404FCD55A
:100390004FF480334FF0010E0520A02102220424E7
:1003A00008251692189217941995CDE909E30023B0
:1003B000CDE9140109A80C9310931B931A93CDE96E
:1003C000122201F005F800B1FEE703234FF03F0CC5
:1003D0004FF480622146CDE901C34023CDE90305F6
:1003E00001A8CDE90533CDE9072301F00DFB00B1EC
:1003F000FEE700F0BBF900B1FEE7BFF34F8FBFF39C
:100400006F8F214B5A6922F400325A61C3F85002AF
:10041000BFF34F8FBFF36F8FC3F88400BFF34F8FCD
:100420005A6922F480325A61BFF34F8FD3F880208B
:1004300043F6E076C2F3C904C2F34E32A507520177
:1004400002EA060C284621464CEA0007013900F171
:100450004040C3F874724F1CF6D1203A12F1200FBD
:10046000EED1BFF34F8FBFF36F8F0A4B00221A609C
:10047000094B0A4A1B6813604FF01042126882F35E
:1004800008889847FEE700BF00ED00E00004005830
:100490000048025810E000E00400009058040020DA
:1004A0007B4B2DE9F04FD3F8D42091B0794D09243E
:1004B00042F480420026784F0BA9C3F8D420284686
:1004C000D3F8D4204FF040084FF00A0BDFF8D0A14A
:1004D00002F480424FF400790092009ADA6F42F4FD
:1004E0008042DA67DA6F22F48042DA67D3F8E020DC
:1004F00042F02002C3F8E020D3F8E02002F020020E
:100500000192019AD3F8E02042F00802C3F8E020FB
:10051000D3F8E02002F008020292029AD3F8E02019
:1005200042F02002C3F8E020D3F8E02002F02002DD
:100530000392039AD3F8E02042F02002C3F8E020AF
:10054000D3F8E02002F020020492049AD3F8E020CD
:1005500042F02002C3F8E020D3F8E02002F02002AD
:100560000592059AD3F8E02042F04002C3F8E0205B
:10057000D3F8E02002F040020692069AD3F8E02079
:1005800042F08002C3F8E020D3F8E02002F08002BD
:100590000792079AD3F8E02042F08002C3F8E020E7
:1005A000D3F8E02002F080020892089AD3F8E02005
:1005B00042F04002C3F8E020D3F8E02002F040020D
:1005C0000992099AD3F8E02042F04002C3F8E020F3
:1005D0004FF48062D3F8E03003F040030A930A9BA3
:1005E0000223CDE90B230323CDE90D630F9400F023
:1005F000DBFA01230BA93846CDF82C800D93CDF8FA
:100600003CB000F0D1FA4FF400630BA923480B93E0
:100610000D960F9400F0C8FA04230BA950460F94CE
:100620000B9300F0C1FA0BA92846CDF82C90CDF819
:100630003CB000F0B9FA08230BA950460F940B9375
:1006400000F0B2FA80230BA928460F940B9300F018
:10065000ABFA0BA93846CDF82C9000F0A5FA0BA9FF
:100660002846CDF82C8000F09FFA4FF480430BA968
:1006700038460B9300F098FA32460F215C2000F0C8
:100680003DFA5C2000F06CFA11B0BDE8F08F00BFBD
:10069000004402580014025800180258000C025876
:1006A000001C025800B54FF4407395B04FF04072F3
:1006B00011480C9305230F920222069300230B92FC
:1006C00006A913930093049303926A46CDE90D3370
:1006D000CDE91133102302934FF48003059340F2C8
:1006E0000113019341F2883300F0D9FD003018BFA7
:1006F000012015B05DF804FB5C04002000B54FF448
:10070000407395B041F2883217480C93062306A92E
:1007100006930023CDE90D330F930B931393CDE98B
:10072000113300F0BCFCE8B940F2022302224FF47E
:10073000800104900C48CDE900331023CDE902324A
:1007400005236A46CDE905134FF0407306A90F93C0
:1007500041F2883300F0A3FD003018BF012015B02E
:100760005DF804FB0120FAE75C0400202DE9F0436A
:100770007D4C9DB07D4B2046236000F074FC074605
:1007800008B10124ECE0FFF78BFE01250323C4E947
:1007900001351023E3604FF0006393FAA3F3B3FA3B
:1007A00083F34FF440762046E761013B2361402309
:1007B000C4E90567236200F0F7FB0028E1D14FF49C
:1007C00080774FF06609099041F2883205906946BA
:1007D0000D900697CDF80090CDE90700CDE90B000C
:1007E000204600F05CFC0028CBD14FF0990841F284
:1007F000883269462046CDF8008000F050FC002881
:10080000BFD141F28832694620460696CDF8009065
:1008100000F045FC0028B4D141F2883269462046F8
:10082000CDF8008000F03BFC0028AAD135231790BA
:10083000139041F288321B900EA914970E93CDE9C4
:100840001500CDE91900204600F029FC002898D1B8
:10085000FFF728FF002894D1B723149617900E9322
:1008600013901B90CDE91500CDE91900FFF746FF65
:10087000002886D141F288320EA9204600F00FFCF4
:1008800000287FF47EAFFFF70DFF00287FF479AFDB
:1008900085234FF440764FF04075ADF800000E937D
:1008A0000223139041F288320EA914961795CDE9D0
:1008B0001500CDE91830CDE91A002B4800F0EFFB08
:1008C00000287FF45EAF41F288326946264800F086
:1008D00085FC00287FF455AFFFF710FF0446002881
:1008E0007FF44FAF812341F288320EA91E480E9348
:1008F000BDF8003023F0F0031B051B0D43F400434B
:1009000043F08003ADF8003000F0C9FB00287FF40D
:1009100038AF41F288326946134800F003FC0028E2
:100920007FF42FAFED236A460EA90F480E934FF4C4
:1009300040631B9415934FF4405314961193052371
:10094000CDE9164513934FF000454FF08043CDE9B4
:100950000044CDE9195300F0F7FC002818BF01242A
:1009600020461DB0BDE8F0835C040020005000521A
:100970007047FEE7FEE7FEE7FEE770477047704707
:1009800000F092B81849194810B5D1F8883043F4EE
:100990007003C1F88830164B1A6842F001021A60E1
:1009A00000221A611C68204018609A61DA611A629C
:1009B0009A62DA621A635A639A63DA631A645A644F
:1009C000186820F4802018601A660A4B1B681B0CFC
:1009D0001B04B3F1005F02D2074B01221A604FF0F3
:1009E00000638B6010BD00BF00ED00E07FEDF6EA14
:1009F000004402580010005C08810051704700005C
:100A000038B50F4B0546187808B9012038BD4FF4AA
:100A10007A730C4AB3FBF0F31068B0FBF3F000F00C
:100A2000ADF804460028F0D10F2DEED80246294635
:100A30004FF0FF3000F062F8034B20461D60E5E701
:100A400008000020000000200C00002010B503204A
:100A500000F042F800F03CFF0F49104A8B69C3F3E5
:100A60000323D35C03F01F03D8400D4B18608B6940
:100A700003F00F03D35C03F01F03D840094B186049
:100A80000F20FFF7BDFF044618B9FFF7B7FF204658
:100A900010BD0124FBE700BF00440258201E0008DF
:100AA0000000002004000020034A044B11681B785A
:100AB0000B441360704700BFA8040020080000200A
:100AC000014B1868704700BFA8040020014B18684C
:100AD000000C70470010005C074A0002D36800F465
:100AE000E06023F4E0631B041B0C43F0BF6343F49A
:100AF00000330343D360704700ED00E0164B70B540
:100B0000DC684FF0FF36C4F30224C4F10705231D4F
:100B1000042D28BF0425062B06FA05F38CBF033CE1
:100B20000024002821EA030303FA04F306FA04F47C
:100B300022EA040443EA04034FEA0313DBB206DBB0
:100B400000F1604000F5614080F8003370BD00F0B6
:100B50000F00024A1354F9E700ED00E014ED00E045
:100B6000002808DB4209012300F01F0003FA00F00F
:100B7000014B43F82200704700E100E00138B0F17A
:100B8000807F0AD2064BF021064A5860002082F886
:100B90002310072298601A6070470120704700BF39
:100BA00010E000E000ED00E04FF0B04C00232DE934
:100BB000F74F724EE246DFF8D0B10A6832FA03F41A
:100BC00002D103B0BDE8F08F4FF0010E0EFA03FE24
:100BD0001EEA020200F0BD804C6824F01004022CD2
:100BE00014D14FEAD30803F007090F2500EB88085A
:100BF0004FEA8909D8F8204005FA09F524EA0505E5
:100C00000C6904FA09F42C43C8F820404FEA430861
:100C10004FF003094C6809FA08F9056804F0030469
:100C20006FEA090904FA08F409EA05052C4304608F
:100C30004D6825F01005013D012D11D88468CD685F
:100C400009EA040405FA08F525438560446824EAA6
:100C50000E0E4C68C4F300149C4044EA0E04446039
:100C6000C46809EA04098C6804FA08F444EA09042F
:100C7000C4604C68E4006CD5414D03F0030E4FF0A6
:100C80000F08D5F8F4404FEA8E0E44F00204C5F880
:100C9000F440D5F8F44023F0030505F1B04504F025
:100CA000020405F580650194019C08FA0EF4D5F85C
:100CB000089029EA0408334CA0424CD004F5806423
:100CC000A0424AD004F58064A04248D0584548D09C
:100CD00004F50064A04246D004F58064A04244D0EC
:100CE00004F58064A04242D004F58064A04240D064
:100CF00004F58064A0423ED004F58064A0420CBF9D
:100D000009240A2404FA0EF444EA0804AC60D5432A
:100D10004F683468FF034CBF14432C4034604F6865
:100D20007468BF034CBF14432C4074604F68DCF8F8
:100D30000040FF024CBF14432C40CAF800404F68EB
:100D4000DAF80440BF0254BF05EA04022243CCF89B
:100D50000420013331E70024D4E70124D2E7022440
:100D6000D0E70324CEE70424CCE70524CAE7062411
:100D7000C8E70724C6E70824C4E700BF800000587E
:100D80000044025800000258000C025838B5104CBC
:100D9000E36813F0040FE36805D103F00703181AA2
:100DA00018BF012038BD23F007031843E060FFF7A8
:100DB00087FE054663689B0401D50020F2E7FFF734
:100DC0007FFE401BB0F57A7FF4D90120EAE700BF2F
:100DD000004802584B6A2DE9F04733B1B2F1406F39
:100DE00003D08B6A0468013B23618B690C6A002B7A
:100DF00067D00568002C35D08B68EB61CC694B6AF5
:100E000005688F69D1F820C0D1F83480D1F810E09E
:100E10000E68D1E90BA9A4B144EA0A04144344EAD8
:100E2000090444EA08042343CC6843EA0E0343EA76
:100E30000C0323433B434C69334343EA84436B61D4
:100E40002AE04AEA0904144344EA0804234343EA33
:100E50000E0343EA0C033B4333434E6943EA8646A1
:100E60006E612CE04E69CC69D1F80090B604D1F8DF
:100E700024804F6BD1E90BECACB11C43CB6814431D
:100E800044EA090444EA080444EA0E0444EA0C046F
:100E90003C431C4334436C61B2F1406F0FD0036894
:100EA0004A689A610BE043EA0903134343EA0803E3
:100EB00043EA0E0343EA0C033B4333436B61BDE853
:100EC000F08744B303688C68DC61CC69D1F8248076
:100ED00005688E69D1F820C04B6BD1F810E0D1E9DC
:100EE0000B796CB13C43144344EA09042343CC68B6
:100EF00043EA080343EA0E0343EA0C0323439AE759
:100F000047EA09042243134343EA080343EA0E0372
:100F100043EA0C03A0E7CD694B6A7DB12B43CD6A50
:100F2000046813432B430D6B2B434D6B2B43CD6850
:100F30002B434D6943EA85436361ADE7002BBED087
:100F4000CC6A0068234313430A6B13434A6B134371
:100F50004A6943EA82434361B1E72DE9F041069DC6
:100F600004460F461646984621688A683A4214BFDE
:100F700001220022B24201D1002011E06B1CF4D00A
:100F8000FFF79EFDA0EB0800A84201D8002DEBD191
:100F90000423012084F84130636C43F0010363644F
:100FA000BDE8F0817047000037B50446FFF788FDC3
:100FB0000546002C4FD094F84030012B4DD0012332
:100FC00084F8403094F8412002F0FF033AB984F8E5
:100FD00040302046FFF7E6FF41F28833A3642068E3
:100FE000A1680268013922F4706242EA01222021DC
:100FF00002600022A36C204600932B46FFF7ADFF52
:1010000020BB2168E569E3680A682B43256A22F062
:101010007F422B43656822F0D00243EA0563134305
:101020000B602168D4E905324D681343226943EA15
:1010300002430B4A2A4013434B602268136843F073
:10104000010313600123606484F84130002384F8B5
:10105000403003B030BD0120FBE70220F9E700BFBC
:10106000FEF8E0FF704710B50446A0B190F840309C
:10107000012B12D00268012380F84030136823F05E
:1010800001031360FFF7EEFF0020606484F8410065
:1010900084F8400010BD0120FCE70220FAE72DE9AA
:1010A000F34704468A469146FFF70AFD94F840301C
:1010B0008046012B34D00123022784F8403094F875
:1010C0004160F6B29E4229D100220346CDF800903D
:1010D00020216264204684F84170FFF73EFF0546F8
:1010E000A8B9024651462046FFF774FEDAF82430CC
:1010F0005BB9CDF800904346324639462046FFF7AB
:101100002CFF054618B92368DF6084F8416000238E
:1011100084F84030284602B0BDE8F0873D46F6E747
:101120000225F7E72DE9F341044688461746FFF705
:10113000C7FC94F840300646012B4DD001232568AA
:1011400084F8403094F84100C0B2984242D1002364
:101150006364B8F1000F38D0122384F841302B6952
:101160000133E3622B69C4F824800133A3626B6905
:1011700023F040636B61E36A9BB900973346012219
:1011800002212046FFF7E9FE10B923680222DA6047
:10119000012384F84130002384F8403002B0BDE8D8
:1011A000F08100973346012204212046FFF7D5FE47
:1011B0000028EDD1636A1B7885F82030636A01331B
:1011C0006362E36A013BE362D5E7636C43F00803C3
:1011D0006364E0E70220DEE70220DFE72DE9F34168
:1011E000044617468846FFF76BFC25680646AA6941
:1011F00094F84030012B50D0012384F8403094F80B
:101200004100C0B2984246D100236364B8F1000F98
:101210003CD0222384F841302B690133A3632B692E
:10122000C4F83080013363636B6923F0406343F09B
:1012300080636B6123689A61A36B9BB90097334607
:10124000012202212046FFF788FE10B923680222FE
:10125000DA60012384F84130002384F8403002B082
:10126000BDE8F08100973346012206212046FFF7B2
:1012700074FE0028EDD195F82020236B1A70236BA3
:1012800001332363A36B013BA363D5E7636C43F096
:1012900008036364E0E70220DEE70220DFE72DE9D0
:1012A000F7430446984689461646FFF709FC94F82A
:1012B00040300746012B45D0012384F8403094F894
:1012C0004150EDB29D423BD142230022CDF8008037
:1012D0002021626484F8413003462046FFF73DFE3A
:1012E00040BB2368204632689A62236872685A625B
:1012F0002368B268DA62216833690A6843F48003BC
:1013000022F4400213434FF000620B604946F36839
:10131000C9F82830FFF75EFDCDF800803B462A462D
:1013200008212046FFF719FE20B923680822DA6059
:1013300084F84150002384F8403003B0BDE8F083C6
:101340000220F7E70220F8E7F7B5044617460E46F5
:10135000FFF7B6FB94F840200346012A36D001225D
:1013600084F8402094F84120012A2DD100228221C6
:101370002046626484F84110A16C00912021FFF79F
:10138000ECFD0546D0B922687968136823F008039C
:101390000B4313607B68082B0AD123683A681A63F1
:1013A00010222368DA602268136843F48013136004
:1013B0004FF0406231462046FFF70CFD002384F8D1
:1013C0004030284603B0F0BD0225F7E70225F8E7D4
:1013D000F8B5044608B9012090E00368DD075ED443
:1013E0002368980700F1AC802368DA0623D5AB4B5D
:1013F0001A69996A02F03802082A07D0182A40F0C0
:10140000008101F00302012A40F0FB801B68DB052C
:1014100002D5E369802BDED1FFF758FB41F20303CD
:101420009E4A9842216A00F2E580536823F0F8430F
:1014300043EA816353602368190700F11B81236825
:101440009A0600F1408123685D0722D5944D2B68F0
:1014500043F480732B60FFF733FB06462B68DA05F5
:1014600040F15681A2688D4B012A40F058811A6FD5
:1014700042F001021A67A368002B00F06781FFF7B2
:101480001FFB864D064641F288372B6F9B0740F1C4
:101490005681606A002840F0698100202EE07F4B71
:1014A0001A69996A02F03802102A05D0182A0AD15E
:1014B00001F00302022A06D11B68990390D56368E4
:1014C000002B8DD187E76268744BB2F5803F16D14F
:1014D0001A6842F480321A6063680BB3FFF7F0FABF
:1014E0006E4D064641F288372B689A033FF578AF78
:1014F000FFF7E6FA801BB842F6D90320F8BD3AB9E7
:101500001A6822F480321A601A6822F48022E2E714
:10151000B2F5A02F1A68F4D142F480221A60D7E7FE
:10152000FFF7CEFA5D4D064641F288372B689B03E4
:101530007FF556AFFFF7C4FA801BB842F6D9DCE757
:10154000564B1A69996A12F0380203D0182A1BD137
:101550008E0719D11B685D0703D5E368002B3FF4A4
:101560003AAFFFF7B3FA41F203034C4A98422169BC
:10157000536895BF23F47C3323F0FE4343EA0133E1
:1015800043EA016353602FE7444DE2682B680AB3D6
:1015900023F0190313432B60FFF792FA06462B68DA
:1015A000580711D5FFF792FA41F2030322699842D6
:1015B0006B6895BF23F47C3323F0FE4343EA023388
:1015C00043EA02636B600FE7FFF77AFA801B022899
:1015D000E5D992E723F001032B60FFF771FA064685
:1015E0002B6859077FF500AFFFF76AFA801B0228C6
:1015F000F6D982E7D36823F07C5343EA0163D360D2
:1016000019E7E369254D23B32B6843F080032B6072
:10161000FFF756FA06462B68DF050DD5FFF756FA99
:1016200041F20303226A98420CD86B6823F0F84316
:1016300043EA82636B60FEE6FFF742FA801B0228F2
:10164000E9D95AE7EB6823F07C5343EA0263EB6085
:10165000F1E62B6823F080032B60FFF731FA064692
:101660002B68D8057FF5E7AEFFF72AFA801B022822
:10167000F6D942E76369094DA3B16B6F43F00103EB
:101680006B67FFF71DFA06466B6F9B073FF5D7AEFA
:10169000FFF716FA801B0228F6D92EE700440258FD
:1016A000004802586B6F23F001036B67FFF708FADD
:1016B00006466B6F9F077FF5C2AEFFF701FA801BEE
:1016C0000228F6D919E7A369804D83B12B6843F44A
:1016D00080532B60FFF7F4F906462B6898043FF51A
:1016E000B2AEFFF7EDF9801B0228F6D905E72B68AB
:1016F00023F480532B60FFF7E3F906462B68990427
:101700007FF5A1AEFFF7DCF9801B0228F6D9F4E6DD
:10171000FFF7D6F9801B64287FF6A0AEEDE63AB954
:101720001A6F22F001021A671A6F22F00402A1E672
:10173000052A1A6FF5D142F004021A6797E6FFF7FF
:10174000BFF9801BB8427FF6A0AED6E6FFF7B8F926
:101750005E4D064641F288372B6F98077FF599AEAC
:10176000FFF7AEF9801BB842F6D9C6E6574D2B6994
:1017700003F03803182B7AD02B68022823F08073EB
:101780002B6067D1FFF79CF906462B6899015BD463
:10179000AB6AA26A23F47C7323F003031343E26A67
:1017A00043EA0213AB62636BA26B013B013A5B023B
:1017B00012049BB202F4FE021343226B013AC2F3FD
:1017C00008021343E26B013A120602F0FE42134391
:1017D0002B63EB6A23F00103EB626B6BA26C23F4C7
:1017E0007F4323F0F80343EAC2036B63EB6A226C86
:1017F00023F00C031343EB62EB6A626C23F00203E9
:10180000324C1343EB62EB6A43F48033EB62EB6AD6
:1018100043F40033EB62EB6A43F48023EB62EB6A40
:1018200043F00103EB622B6843F080732B60FFF7FA
:1018300047F9054623689A013FF52FAEFFF740F9B7
:10184000401B0228F6D958E6FFF73AF9801B022818
:101850009BD952E6FFF734F904462B689B017FF5CC
:101860001CAEFFF72DF9001B0228F6D945E601282A
:10187000AA6A2B6B3FF442AE02F00301A06A8142D8
:101880007FF4A9ADC2F30512E16A8A427FF4A3ADE9
:10189000226BC3F30801013A91427FF49CAD626B65
:1018A000C3F34621013A91427FF495ADA26BC3F395
:1018B0000641013A91427FF48EADE06BC3F30663BB
:1018C0000138181A18BF012018E600BF004402585A
:1018D000464B10B51A6902F03802102A00F08480D5
:1018E000182A0CD00AB1424810BD1A68414812F0BB
:1018F000200FF9D01B68C3F3C103D840F4E7996AFD
:10190000986ADA6AC0F305105C6B0028ECD007EE29
:10191000900A02F00102C4F3CC00B7EE006AF8EEC0
:10192000E76A424307EE902A01F00302012AFAEE29
:10193000E97A02D00FD3022A48D01B6BC3F3080305
:1019400007EE103AB8EEC77A77EE277A77EE867A06
:101950009FED296A37E01A68920627D51968254A4B
:10196000C1F3C1011B6BCA40C3F3080307EE102A81
:10197000F8EEC75A85EEA67A06EE903AF8EEE66AD9
:1019800076EEA77A77EE867A184B67EE877A1B6B2E
:10199000C3F34623013307EE103AF8EEC76A87EE29
:1019A000A67AFCEEC77A17EE900A9DE71B6BC3F38D
:1019B000080307EE103AB8EEC77A77EE277A77EE8B
:1019C000867A9FED0E6A86EE267ADDE71B6BC3F3FF
:1019D000080307EE103AB8EEC77A77EE277A77EE6B
:1019E000867A9FED076AEEE706487DE700440258D5
:1019F00000093D000090D0030024744A0024744C78
:101A000020BCBE4B40787D012DE9F0410D460446D7
:101A100010B90120BDE8F081884A136803F00F0374
:101A20008B42C0F0928023685E0700F19A802368A1
:101A300018070BD5824A6069D16901F070018842AC
:101A400004D9D36923F070030343D3612368D90613
:101A50000BD57B4AA069D16901F4E061884204D9C1
:101A6000D36923F4E0630343D36123689A060BD55B
:101A7000734AE069116A01F07001884204D9136A5F
:101A800023F070030343136223689B070BD56C4A52
:101A9000E068916901F00F01884204D9936923F04D
:101AA0000F03034393612368DF0768D423689E070D
:101AB00000F19B80614A136803F00F03AB4200F210
:101AC000A2802368580700F1AA80236819070BD564
:101AD0005B4A6069D16901F07001884204D2D36920
:101AE00023F070030343D3612368DA060BD5544A0D
:101AF000A069D16901F4E061884204D2D36923F47A
:101B0000E0630343D36123689B060BD54C4AE0692D
:101B1000116A01F07001884204D2136A23F0700345
:101B200003431362FFF7D4FE454B464A9B69C3F358
:101B30000323D35C03F01F03D840434B1860434B8F
:101B4000BDE8F0411868FEF75BBF136823F00F0390
:101B50000B431360136803F00F038B427FF459AFFC
:101B600061E7374A2069916901F0700188427FF688
:101B70005EAF936923F070030343936157E7304BE3
:101B8000A1689A6922F470620A439A6161681A68CE
:101B900002291DD112F4003F3FF43BAF1A6941F214
:101BA0008838274E22F007020A431A61FEF788FFA1
:101BB00007463369626803F03803B3EBC20F3FF4A2
:101BC00075AFFEF77DFFC01B4045F2D9032021E72A
:101BD000032902D112F0007FDEE7012902D112F4BD
:101BE000807FD9E712F0040FD6E7154AE0689169C3
:101BF00001F00F018842BFF45DAF936923F00F033A
:101C00000343936156E7136823F00F032B431360DC
:101C1000136803F00F03AB427FF4FBAE51E7084AB1
:101C20002069916901F070018842BFF44EAF936959
:101C300023F070030343936147E700BF0020005285
:101C400000440258201E0008000000200C00002064
:101C5000DFF834D0002103E00C4B5B5843500431D3
:101C60000B480C4B42189A42F6D30B4A02E0002371
:101C700042F8043B094B9A42F9D3FEF783FE00F089
:101C800011F8FEF729FB704700000220401E0008F3
:101C9000000000203C0400203C040020D004002070
:101CA000FEE7000070B50D4E0D4D761BB61006D048
:101CB0000024013455F8043B9847A642F9D1094E57
:101CC000094D761B00F0A0F8B61006D000240134B0
:101CD00055F8043B9847A642F9D170BD341E000860
:101CE000341E00083C1E0008341E0008024B13B1CD
:101CF000024800F005B87047000000000D1D000804
:101D0000002301461A46184600F01EB838B50A4CA2
:101D10000A4D641BA4100AD004F18043013B05EB7B
:101D20008305013C55F804399847002CF9D1BDE8EA
:101D3000384000F06FB800BF401E00083C1E00088D
:101D4000704700BF704700BF2DE9F8432B4D064692
:101D5000286898460F469146FFF7F2FF284B1C680B
:101D6000D4F84831002B3DD05A681F2A0DDC02F10F
:101D7000010C16BB0232C3F804C0286843F8227075
:101D8000FFF7E0FF0020BDE8F8831E4B7BB34FF464
:101D9000C870AFF30080034648B3D4F8482100214F
:101DA000C0E900214FF0010CC4F848010A46C0F810
:101DB0008811C0F88C11002EDCD003EB82010124C5
:101DC000C1F88890D3F8880194402043022EC3F8CC
:101DD0008801C1F80881CDD1D3F88C110C43C3F828
:101DE0008C41C7E704F5A673C4F84831BCE72868FE
:101DF000FFF7A8FF4FF0FF30C5E700BF3804002011
:101E0000301E000800000000F8B500BFF8BC08BC98
:101E10009E467047F8B500BFF8BC08BC9E467047A8
:101E20000000000001020304010203040607080980
:101E300010000020ED1C0008BD02000899020008F7
:101E40000090D0030090D0030100000010000000BB
:101E500000000000FC02002064030020CC030020EE
:101E60000000000000000000000000000000000072
:101E70000000000000000000000000000000000062
:101E80000000000000000000000000000000000052
:101E90000000000000000000000000000000000042
:101EA0000000000000000000000000000000000032
:101EB0000000000000000000000000000000000022
:101EC0000000000000000000000000000000000012
:101ED0000000000000000000000000000000000002
:101EE00000000000000000000000000000000000F2
:101EF00000000000000000000100000000000000E1
:101F00000E33CDAB34126DE6ECDE05000B000000A5
:101F100000000000000000000000000000000000C1
:101F200000000000000000000000000000000000B1
:101F300000000000000000000000000000000000A1
:101F40000000000000000000000000000000000091
:0C2270000000000000000000AC04002092
:0200000490006A
:1000000000000824F5F90090834A0090854A00908A
:10001000874A0090894A00908B4A009000000000B7
:1000200000000000000000000000000061EB0090F4
:100030008D4A009000000000F1EB009011E5009067
:1000400045FA009045FA009045FA009045FA009074
:1000500045FA009045FA009045FA009045FA009064
:1000600045FA009045FA009045FA009045FA009054
:1000700045FA009045FA009045FA009045FA009044
:1000800045FA009045FA009045FA009045FA009034
:1000900045FA009045FA009045FA009045FA009024
:1000A00045FA009045FA009045FA009045FA009014
:1000B00045FA009045FA009045FA009045FA009004
:1000C00045FA009045FA009045FA009045FA0090F4
:1000D00045FA009045FA009045FA009045FA0090E4
:1000E00045FA009045FA00900000000045FA0090A3
:1000F00045FA009045FA009045FA009045FA0090C4
:1001000045FA009045FA009045FA009045FA0090B3
:1001100045FA009045FA0090914A009045FA009007
:1001200045FA009045FA009045FA009045FA009093
:1001300045FA009045FA009045FA009045FA009083
:1001400000000000000000000000000000000000AF
:1001500045FA009045FA009045FA009045FA009063
:1001600045FA009045FA009045FA009045FA009053
:1001700045FA009045FA009045FA009045FA009043
:1001800045FA009045FA009045FA009045FA009033
:1001900045FA009045FA009045FA009045FA009023
:1001A0009D4A009045FA0090A94A009045FA0090B7
:1001B00045FA009045FA009045FA009045FA009003
:1001C00045FA009045FA009045FA009045FA0090F3
:1001D00045FA009045FA009045FA009045FA0090E3
:1001E00045FA009045FA009045FA009045FA0090D3
:1001F00045FA009045FA009045FA009045FA0090C3
:1002000045FA009045FA009045FA009045FA0090B2
:1002100045FA009045FA009045FA009045FA0090A2
:1002200045FA0090B54A0090C14A009000000000D5
:1002300045FA009045FA00900000000045FA009051
:1002400045FA009045FA009045FA009045FA009072
:1002500045FA009045FA009045FA009045FA009062
:1002600045FA009045FA009045FA009045FA009052
:1002700045FA009045FA009045FA00900000000011
:1002800045FA009045FA009045FA00900000000001
:080290000000000045FA009097
:1002A00010B5054C237833B9044B13B10448AFF3B0
:1002B00000800123237010BD7001002400000000A5
:1002C00030B2029008B5034B1BB103490348AFF3AA
:1002D000008008BD000000007401002430B20290CC
:1002E0007BB972B90029BEBF00204FF0004106E083
:1002F00008BF00281CBF6FF000414FF0FF3000F036
:10030000BDB9ADF1080C6DE904CE002909DB002B65
:100310001ADB00F04DF8DDF804E0DDE9022304B05B
:100320007047404261EB4101002B1BDB00F040F8BD
:10033000DDF804E0DDE9022304B0404261EB410155
:10034000524263EB43037047524263EB430300F0B6
:100350002FF8DDF804E0DDE9022304B0404261EB50
:1003600041017047524263EB430300F021F8DDF88E
:1003700004E0DDE9022304B0524263EB430370471B
:1003800053B94AB9002908BF00281CBF4FF0FF31FC
:100390004FF0FF3000F072B9ADF1080C6DE904CEFA
:1003A00000F006F8DDF804E0DDE9022304B0704750
:1003B0002DE9F047089E04468846002B4BD18A421F
:1003C000154667D9B2FA82F24AB1C2F1200701FAA2
:1003D00002F320FA07F7954047EA030894404FEAF2
:1003E000154E230CB8FBFEF71FFA85FC0EFB178891
:1003F00043EA084307FB0CF1994209D9EB1807F1CE
:10040000FF3080F01B81994240F21881023F2B445B
:100410005B1AA4B2B3FBFEF00EFB103344EA0344B4
:1004200000FB0CFCA44509D92C1900F1FF3380F026
:100430000781A44540F2048102382C4440EA074079
:10044000A4EB0C0400271EB1D4400023C6E90043EE
:100450003946BDE8F0878B4209D9002E00F0EB80C9
:100460000027C6E9000138463946BDE8F087B3FAEF
:1004700083F7002F47D18B4202D3824200F2FA80E9
:10048000841A61EB030301209846002EE0D0C6E9F0
:100490000048DDE702B9FFDEB2FA82F2002A40F03E
:1004A0008F80491B4FEA154E1FFA85F80127B1FBD3
:1004B000FEFC230C0EFB1C1143EA014308FB0CF16C
:1004C000994207D9EB180CF1FF3002D2994200F2A1
:1004D000CD808446591AA3B2B1FBFEF00EFB101476
:1004E00043EA044408FB00F8A04507D92C1900F1A1
:1004F000FF3302D2A04500F2B6801846A4EB0804F0
:1005000040EA0C409FE7C7F1200CBB4022FA0CFEEA
:100510004EEA030E01FA07F420FA0CF521FA0CF367
:100520004FEA1E482543B3FBF8F92C0C08FB19339E
:100530001FFA8EFA44EA034309FB0AF49C4202FACA
:1005400007F200FA07F10BD91EEB030309F1FF30A4
:1005500080F087809C4240F28480A9F102097344B4
:100560001B1BADB2B3FBF8F008FB103345EA0344A4
:1005700000FB0AFAA24508D91EEB040400F1FF3380
:100580006BD2A24569D90238744440EA0940A0FB05
:100590000289A4EB0A044C45C2464B4654D351D0C1
:1005A000002E69D0B1EB0A0564EB030404FA0CFCDD
:1005B000FD40FC404CEA0505C6E90054002747E72A
:1005C000C2F1200320FA03F7954001FA02F021FA64
:1005D00003F34FEA154E3843010CB3FBFEF71FFA45
:1005E00085F80EFB173341EA034107FB08F38B4202
:1005F00004FA02F407D9691807F1FF3C2FD28B42A5
:100600002DD9023F2944CB1A81B2B3FBFEF00EFB79
:10061000103341EA034100FB08F38B4207D9691804
:1006200000F1FF3C17D28B4215D902382944C91A70
:1006300040EA07473BE73746304609E70746E7E623
:100640001846FBE64145ABD2B8EB020A69EB0E0255
:1006500001381346A4E76046E9E7184695E7674680
:10066000D1E781467CE702382C4447E7ACF1020C25
:100670002B442FE7384608E73746E9E6704700BFC6
:1006800001F0FF01102A2BDB10F0070F08D010F843
:10069000013B013A8B422DD010F0070F42B3F6D147
:1006A000F0B441EA012141EA014122F007047FF060
:1006B00000070023F0E80256083C85EA010586EAB7
:1006C000010685FA47F5A3FA87F586FA47F6A5FAF3
:1006D00087F68EB9EED1F0BC01F0FF0102F00702FF
:1006E00032B110F8013B013A83EA010313B1F8D1AA
:1006F0000020704701387047002D06BF354603388B
:10070000073815F0010F07D1013015F4807F02BFC3
:10071000013015F4C03F0130F0BC0138704700BF14
:100720007047704770477047034B10B5044603602D
:1007300000F042FB204610BDDCB2029010B504462A
:10074000FFF7F2FFDC21204628F08AFC204610BD8E
:1007500010B5044600F08EFB014B2046236010BD0F
:10076000DCB2029000F029BB704704387047704734
:1007700010B50446102128F073FC204610BDA0F1EE
:100780000400F5E70022C1608260044A10B502F15E
:10079000080420320460426010BD00BF08B302901C
:1007A000002202607047704770470000034B10B58D
:1007B0000446036000F0AAFC204610BD3CB3029042
:1007C00010B50446FFF7F2FF42F27471204628F09C
:1007D00047FC204610BD000010B5044600F0CAFDDD
:1007E000064B42F26E72204623600123A35442F26C
:1007F0006F72A35442F27072A35410BD3CB30290C6
:100800002DE9F04190F829300446002B46D0438D65
:10081000858D01339BB2AB4243853FD35B1B828EF8
:10082000866B00219DB2038ED21AC38D284612B268
:10083000B047638EE28E06460021E76BD21A284647
:10084000E38D12B2B847E388628E218ED21AA38854
:10085000C91A024423682046314412B25B6D09B2C2
:100860009847A38DE18D628D0B449A4216D30023E5
:1008700084F82930638516F0B5FC2146043016F063
:10088000FEFC206C50B10368DB68984730B1206CE7
:1008900021460368BDE8F0419B681847BDE8F08138
:1008A000F8B51D4690F8293004460F4616462BB978
:1008B00016F098FC2146043016F08AFD0023E585E9
:1008C000A7866385A388E6862386E3886386069BDE
:1008D000A363079BE363012384F82930E36A13B918
:1008E0002046FFF78DFFF8BD70B5044600F0BCFB55
:1008F000154A64210023154D11802A21144A04F65B
:100900004830144E11804FF44871134A33801180DF
:100910006321124A118041F28831114A1180082165
:10092000104A1380104A1380104A11802A4603216E
:100930001AF0E2F833882A4604F60E300521BDE8A5
:1009400070401AF0D9B800BF8C01002430B3029077
:100950009A010024980100249C0100249E01002497
:1009600094010024A0010024960100248E0100249B
:100970002DE9F74300F16C07B94E044638460FF0F5
:100980001CFB338880B2834240F0108142F27073C6
:100990000122E25442F27073E35C002B00F00F81FD
:1009A000053085B2384629460FF00CF90023642142
:1009B0003846C4F8C4310FF078FB07EE900AB1EE68
:1009C000026B04F5C270B8EEE77BA64F27EE067BFC
:1009D000BCEEC77B17EE103A99B2A34B462900F242
:1009E000F0804A420F3906EE102AA04AB8EEC66BD4
:1009F0009FED955B9FED967BCDE900320123A6EE3E
:100A0000057BBDEEC77B17EE102A12B209B204F5C2
:100A10000578FFF745FF0A23954A05216B4304F645
:100A2000FC201AF069F804F5E47017F0C6FC4046A3
:100A30000FF0C3FA338880B2834240F0CC8042F298
:100A40006E730122E25442F26E73E35C002B00F0FD
:100A5000CB80013085B24FF00009404629460FF0A7
:100A6000B1F86421C4F86C9340460FF01EFB07EE0A
:100A7000900A0123D922B8EEE77B04F54B709FED75
:100A8000766BCDE9007704F5026727EE067BBDEEB5
:100A9000C77B17EE101A09B2FFF702FF2B46744A04
:100AA000042104F606301AF027F804F55C7017F0FC
:100AB00084FC38460FF081FA338880B2834240F0DC
:100AC000958042F26F730122E25442F26F73E35C4D
:100AD000002B00F09480013085B23846654E2946DF
:100AE0000FF070F82B46624A032104F642301AF0E8
:100AF00003F804F2D47017F060FC32883C21013214
:100B000092B2B2FBF1F301FB132332809BB2002BB4
:100B100037D1594DDFF884812A88584F013292B27B
:100B20003B2A6ED82A80564A56491388098899422A
:100B30000CD30133032104F648309BB213804C4A96
:100B400019F0DAFF04F6381017F037FC4E4A4F4917
:100B50001388098899420CD30133052104F60E301D
:100B60009BB21380424A19F0C7FF04F56F7017F06B
:100B700024FC2B7804F24C6098F8002039780FF0B0
:100B8000E0FC32880723B2FBF3F3C3EBC303D31AB1
:100B90009BB2002B49D14FF0FF2304F6F810C4F8A4
:100BA000243A03B0BDE8F04317F007BC384B1B886C
:100BB00083427FF4EFAE42F270730022E9E605381B
:100BC000EFE6B1F5827F4FF02102CDE9003798BF03
:100BD0000A3901231AE72F4B1B8883427FF433AF76
:100BE00042F26E7300222DE7013833E72A4B1B884F
:100BF000834204BF42F26F7304F8039065E7013843
:100C00006AE7B8F800202B80013292B23B2A02D862
:100C1000A8F8002087E73A88A8F80030013292B29D
:100C2000172A94BF3A803B807DE70C21B2FBF1F399
:100C300001FB13239BB213B9A3F58033ADE703B0D7
:100C4000BDE8F083AFF300809A9999999999F13FA3
:100C500000000000004060409A99999999991140CC
:100C600098010024239401907D940190ED940190CB
:100C700030B30290A2010024920100248E010024CE
:100C8000A00100249E010024960100249401002468
:100C90009C0100248C0100249A010024900100246E
:100CA000704704387047704710B50446102128F08B
:100CB000D7F9204610BDA0F10400F5E70022C1607D
:100CC0008260044A10B502F10804203204604260D8
:100CD00010BD00BF68B30290704700F598730868B4
:100CE000496803C37047704701F072BA10B50446F3
:100CF0004FF4AE7128F0B4F9204610BD10B504468B
:100D0000D0F85801FFF74FFD2046BDE8104016F01F
:100D10002DBB10B50446D0F8400158B10368DB681C
:100D2000984738B1D4F8400103689B68984700237E
:100D3000C4F8403110BD000010B5044601F010FAAF
:100D4000014B2046236010BD98B3029090F82520F7
:100D500012B103685B6918477047002070478180B3
:100D60007047C1807047018170474181704770476B
:100D70007047704770477047C388D21A8388C91A72
:100D8000036812B209B210B45DF8044B5B6D1847EA
:100D90004FF6FF7383814FF0FF3303621368C36123
:100DA0001060704790F825201AB190F8242002B105
:100DB000186070477047704770477047704730B48D
:100DC000C568034644686A10ED079B6804EB02009F
:100DD00048BFA25830BC48BFD358184743682BB10E
:100DE00083682BB9C06800F001007047184670474F
:100DF0000120704710B50446102128F031F9204633
:100E000010BD10B50446DC2128F02AF9204610BD9B
:100E10009830884208B505D116F0E4F9BDE80840DD
:100E200001F0E6B908BD00000A4A02600022828093
:100E3000C280028142818281C28102824282C26179
:100E40000284428480F82420C0E90522012280F82F
:100E500025207047E4E5029070B503680446154606
:100E60001B6B98472368294620465B6BBDE87040A2
:100E7000184700002DE9F74F0446002518F0ECF85C
:100E80004FF0260B2646494BE5635A4646F8403B51
:100E90002946304604F16C0729F0E5F93046FFF7A2
:100EA000C3FF4FF0FF08424B4FF6FF7A5A462946E0
:100EB0002364384684F866800DF10809A566ADF80C
:100EC00004A029F0D0F93846FFF7AEFF394B84F87B
:100ED000948004F19808E366384639F8043DA4F894
:100EE0009230494613F08AFD5A462946404629F079
:100EF000BAF94046FFF798FF01232A46C4F8C050CC
:100F000084F8BC3029462C4B304684F8C450C4F8D1
:100F100098302A4BA4F8C6A0A4F8C8A084F8CAA0A8
:100F2000C4E93334264BC4E93535FFF795FF304625
:100F30004FF4F071251DFFF716FF30464FF488710E
:100F4000FFF713FF4FF07F4331462846A3660FF0AB
:100F500069FB482238461B21FFF77EFF0F234946D5
:100F60003846ADF8043013F049FD394628460FF0F5
:100F700059FB4046A822DB21FFF76EFF04234A46B7
:100F80006946ADF8003003234046ADF8043013F055
:100F900067FB04F1CC0328464146C4F8C0300FF08B
:100FA00041FB204603B0BDE8F08F00BF04B40290BF
:100FB0004CE3029014E5029038E40290ECB3029006
:100FC000110E009008B590F828300BB1FFF7BEFE67
:100FD00008BD704730B585B00368044601816D4691
:100FE0000146D3F884303C342846984795E80700FA
:100FF00084E8070005B030BD30B585B0036804460D
:1010000041816D460146D3F884303C3428469847E8
:1010100095E8070084E8070005B030BD0022028093
:1010200042808280C280704780F83610704770B569
:101030000368044615461B6B9847236829462046DB
:101040005B6EBDE8704018470020704708B5FFF799
:101050007DFE08BD806C704700207047B1F90430F8
:1010600083800120704770477047704770478185C3
:101070007047808D704710B50446082127F0F0FFB7
:10108000204610BD10B50446442127F0E9FF204654
:1010900010BD10B504464C2127F0E2FF204610BDDC
:1010A00070B5036804468DB25E6B114B1B682BB99B
:1010B000104B6C21104A114829F05AF81049828DC2
:1010C0000988914203D80F4B6D210B4AF3E713F8BF
:1010D00012200D4B1B6853F8220003681B6B9847C6
:1010E000291A3346204609B2BDE87040184700BFB0
:1010F0003440022421B6029051B7029063B60290A8
:1011000038400224A4B602903C400224034B10B5A0
:101110000446036014F06EFB204610BDECB602904E
:10112000064B10B50446036014F064FB42F2707184
:10113000204627F095FF204610BD00BFECB6029078
:101140002DE9F04190F829300446002B41D0438D21
:10115000858D01339BB2AB4243853AD35B1B828EB4
:10116000866B00219DB2038ED21AC38D284612B21F
:10117000B047638EE28E06460021E76BD21A2846FE
:10118000E38D12B2B847628E218E0244204631446C
:1011900012B209B2FFF7F0FDA38DE18D628D0B4411
:1011A0009A4216D3002384F82930638516F01AF882
:1011B0002146043016F063F8206C50B10368DB68F8
:1011C000984730B1206C21460368BDE8F0419B6828
:1011D0001847BDE8F08170B504461E46BDF91050B1
:1011E000FFF73AFE2368314620469A6B9047236802
:1011F00029462046DB6BBDE87040184710B5044611
:101200002622002129F02FF82046FFF70DFE044B7F
:1012100020462360FF2384F826300023A36210BDFC
:101220004CE3029038B504460D462622002129F0F1
:101230001AF82046FFF7F8FD064B204629462360A2
:101240002B88E384FF2384F8283013F0D7FB204653
:1012500038BD00BF14E5029000224FF6FF710280F6
:1012600042808180C1808260704710B50446FFF7DC
:10127000F3FF204610BD000010B5044600212622D1
:1012800028F0F1FF2046FFF7CFFD0B4B4FF47F0214
:1012900004F13C002360094BA3624FF6FF73A38562
:1012A0000023C4E90C3284F8383084F83930FFF771
:1012B000D3FF204610BD00BFBCE2029038B40290BC
:1012C00010B50446FFF7D8FF024B204623600023E9
:1012D000A36410BD48B40290002370B58380064615
:1012E000104B114D03602A6892F8581009B1D06C68
:1012F00000B990680368DB6A98472B68B0FA80F4FD
:10130000D86C640928B10368DB6A9847002808BFD5
:1013100001242CB9054B2C21054A064828F028FF4A
:10132000304670BDD8B40290DC3F022467B502900D
:1013300018B70290C5B5029013B54FF6FF7302A916
:10134000044621F8043DFFF76DFF094B204623605A
:10135000002384F829306385A385E385238663868B
:10136000A386E3862364C4E90E3302B010BD00BF38
:10137000F8B402902DE9F04F0446BBB0002617F0F8
:101380006BFEA246B74B04F16C0804F5C27BE66322
:1013900004F505794AF8403B5046FFF72FFF4046D9
:1013A0000EF04AFD5846FFF7C7FF04F5E4733AAF65
:1013B0004FF6FF7518460493FFF782FF48460EF07C
:1013C0003BFD04F54B7318461293FFF7B5FF04F588
:1013D0005C7318460B93FFF773FF04F56F731846A1
:1013E0000593FFF76DFF04F5816318460693FFF739
:1013F00067FF04F2544318460C93FFF761FF04F5AE
:10140000946327F80C5D394618461393FFF70AFFDB
:1014100004F2CC4318460793FFF72EFF04F214534F
:1014200018460D93FFF74CFF04F5AC6318460E9376
:10143000FFF746FF04F2AC533946ADF8DC501846CE
:101440001493FFF7EFFE04F5BB6318460893FFF70C
:1014500013FF04F5C4633946ADF8DC501846159304
:10146000FFF7E0FE04F24C63184603930FF018F800
:1014700004F2E4633946ADF8DC5018461693FFF7E2
:10148000D1FE04F5E26318460F93FFF719FF04F24B
:101490005C7318461093FFF713FF04F5F5633946A4
:1014A000ADF8DC5018461793FFF7BCFE04F2D47376
:1014B00018461193FFF704FF04F5026318460293E0
:1014C0000EF0BAFC04F6381318461893FFF7F8FE2E
:1014D00004F6841318460993FFF7CEFE04F6CC13E6
:1014E0003946ADF8DC5018461993FFF79BFE04F619
:1014F000F81318461C93FFF781FE5B4BC4F8246A6F
:10150000C4F8F83904F62C23A4F8286A18460A937C
:10151000FFF7B2FE04F6742318461A9311F0CAFDC1
:1015200004F6BC2318461D93FFF7D6FE4F4B3946F1
:10153000C4F8C86AC4F8BC3A2433ADF8DC50251DA1
:10154000C4F8C43A04F52D6318461B93FFF76AFEEE
:101550004FF4E15104F64E3014F042F94FF4887321
:1015600032465046009331464FF4F073FFF733FE96
:101570004FF07F4351462846A3660FF053F840468C
:101580001F220121FFF768FC6D2340460D220093C6
:1015900031464FF4EE73DFF8ECA00EF0FBFA4FF497
:1015A000487233464046314600960EF0C9FC40462C
:1015B00031460EF096FA102340463946ADF8DC303D
:1015C0000EF0F9FD404611210EF0D1FA404640F2EE
:1015D0006F210EF0F7FA404601210EF0A9FA4146BC
:1015E00028460DF178080FF01DF82122584640F2E8
:1015F0005D11FFF731FC0C2358463946ADF8DC305D
:1016000013F0FCF9594628460FF00CF82F224FF43E
:10161000D0710498FFF720FC4FF0FF33A4F8FC6171
:101620004046C4F8F83104F6FC2BD4F8C8310499CC
:10163000D3F88430984704F5017398E8070083E8ED
:101640000700DAF800302BB9094B6021094A0A4833
:1016500028F08EFD094B1B881A2B15D8084B6121E9
:10166000044AF4E7ECB60290ACE402907CE002900D
:1016700021B602908CB7029063B6029038400224E3
:10168000A4B6029034400224D74B1A21186801F006
:1016900095F9D64A03460521584619F02DFAC4F8A3
:1016A00010B2049804F6063B12F08EFD1B23D04ABC
:1016B00039460498ADF8E030379212F0A5FD049950
:1016C00028460EF0AFFF4846DB220121FFF7C4FB9E
:1016D0002923484604220093062140F2C1130EF04C
:1016E00059FA642233464846314600960EF028FCEB
:1016F000484631460EF0F5F90E2348463946ADF816
:10170000DC300EF058FD48460D210EF030FA484608
:101710004C210EF057FA484601210EF009FA4946CD
:1017200028464FF014090EF07DFFDB2240F24711EE
:101730001298FFF791FB0B2339461298ADF8DC3075
:1017400013F05CF9129928460EF06CFFC8221E2394
:101750004FF4DF710B98CDF80090FFF73CFD4FF090
:10176000FF30D4F87033C4F8A0034046A4F8A46353
:101770000B99D3F88430984704F56B7398E8070009
:1017800083E80700DAF80030002B3FF45DAF994A98
:101790001388182B7FF662AF934B1821186801F05D
:1017A0000DF9924A03460421584619F0A5F99049CB
:1017B0001923C4F8B8B3379139460B9804F60E3B99
:1017C000ADF8E03012F020FD0B9928460EF02AFF0C
:1017D000C72202210598FFF73FFB4FF0FF30D4F8F6
:1017E000BC33C4F8EC034046A4F8F0630599D3F881
:1017F0008430984704F57E7398E8070083E8070073
:10180000DAF80030002B3FF41FAF7A4A1388162B0A
:101810007FF624AF744B1621186801F0CFF8734A95
:1018200003460521584619F067F90598C4F804B431
:1018300012F0CAFC6E491723059837913946ADF866
:10184000E03012F0E1FC059928460EF0EBFEA722ED
:1018500040F2A9110698FFF7FFFA4FF0FF30D4F8D5
:101860000834C4F838044046A4F83C640699D3F818
:101870008430984704F2444398E8070083E807005F
:10188000DAF8003004F61838002B3FF4DDAE594A80
:1018900013884B457FF6E2AE534B4946186801F07A
:1018A0008DF8524A03460321404619F025F906985F
:1018B000C4F8508412F088FC4D49152306983791DE
:1018C0003946ADF8E03012F09FFC069928460EF03C
:1018D000A9FE902240F2A3110C98FFF7BDFA4FF039
:1018E000FF31A4F8886425AEC4F884143046FFF7AD
:1018F000B3FC04F5926396E8070083E80700DAF882
:10190000003004F61E36002B3FF49EAE394A138891
:10191000102B7FF6A3AE344B1021DFF8D4804FF0AC
:10192000FF3718680DF1780901F048F82F4A03468F
:10193000042130460DF1A00A19F0DEF8C4F89C64C9
:101940000C98002612F040FC112337A90C98ADF832
:10195000E03004F6263BCDF8DC8012F055FC0C9903
:1019600028460EF05FFE9E2240F28B111398FFF77F
:1019700073FA4FF0010137A8ADF8DC100146139857
:1019800013F03CF8139928460EF04CFEA2224FF4B7
:10199000C7710798FFF760FA07994846C4F8FC74C6
:1019A000A4F8006512F096F9079901F13C0399E853
:1019B000070083E807004FF00F00CDF8DC80ADF89A
:1019C000E00037A80146079812F01EFC0799284648
:1019D0000EF028FE702240F2A9110D98FFF73CFA94
:1019E0005046C4F8447507E04040022464B50290B4
:1019F00038B4029038400224A4F84865FFF72CFC64
:101A000004F5AA639AE80700DFF870A383E80700EB
:101A1000DAF80030002B3FF417AED54A13880D2BAF
:101A20007FF61CAED34B0D21186800F0C7FFD24AD9
:101A300003460321584619F05FF8C4F85CB50D98C9
:101A40000DF1AC0B12F0C0FB37A80E23CDF8DC80F3
:101A500001460D98ADF8E03012F0D6FB0D992846FE
:101A60000EF0E0FD592240F2A3110E98FFF7F4F9B1
:101A70005846C4F89075A4F89465FFF7EDFB04F29E
:101A80009C539BE8070083E80700DAF8003004F66F
:101A90002C3B002B3FF4D8ADB54A13880B2B7FF6B7
:101AA000DDADB44B0B21186800F088FFB24A034645
:101AB0000421584619F020F8C4F8A8B50E984FF044
:101AC000020B12F081FB37A80C23CDF8DC80014615
:101AD0000E98ADF8E03012F097FB0E9928460EF004
:101AE000A1FD672240F28B111498FFF7B5F94FF072
:101AF00001011498ADF8DC1037A912F07FFF14999A
:101B000028460EF08FFD6B2240F28F110898FFF7E8
:101B1000A3F948460899C4F80876A4F80C6612F0B0
:101B2000D9F8089901F13C0399E807004FF00A0938
:101B3000CDF8DC8083E8070037A90898ADF8E0907D
:101B400012F062FB089928460EF06CFD3246C02167
:101B50001598FFF781F937A91598ADF8DC9012F0C8
:101B60004DFF159928460EF05DFD0F2107224823F1
:101B70000091CD210398FFF72EFB394603980EF014
:101B8000CDFB092337A90398ADF8E030CDF8DC8010
:101B90000EF0D7FB012103980EF0D0FC0121334653
:101BA0004A4684F87BB60091082103980EF0E3FCC6
:101BB000039928460EF036FDA12259461698FFF7E4
:101BC0004BF9122337A91698ADF8DC3012F016FF46
:101BD000169928460EF026FD59460DF1B80BB12294
:101BE0000F98FFF739F95846C4F84077A4F84467CE
:101BF000FFF732FB04F24C739BE8070083E8070011
:101C0000DAF8003004F6343B002B3FF41DAD584A9F
:101C10001388072B7FF622AD564B0721186800F07A
:101C2000CDFE554A03460321584618F065FFC4F817
:101C300058B70F980DF1C40B12F0C6FA082337A954
:101C40000F98ADF8E030CDF8DC8012F0DDFA0F9996
:101C500028460EF0E7FCB12237211098FFF7FCF878
:101C60005846C4F88C77A4F89067FFF7F5FA04F5A6
:101C7000F3639BE8070083E80700DAF8003004F616
:101C80003A3B002B3FF4E0AC394A1388052B7FF632
:101C9000E5AC384B0521186800F090FE364A034643
:101CA0000421584618F028FF1098C4F8A4B712F081
:101CB0008BFACDF8DC804FF0060837A91098ADF804
:101CC000E08012F0A1FA109928460EF0ABFC072232
:101CD00001211798FFF7C0F837A91798ADF8DC80F5
:101CE00012F08CFE179928460EF09CFC4A462621DD
:101CF0001198FFF7B1F8A4F8086834AEC4F8047876
:101D00003046FFF7A9FA04F5016396E8070083E877
:101D10000700DAF8003004F64236002B3FF494ACAA
:101D2000134A1388032B7FF699ACDFF848A00321F0
:101D300037AFDFF84C80DAF800004FF0020900F00E
:101D40003DFE0D4A0346032130464FF0FF3B18F09D
:101D5000D3FEC4F81C681198002612F035FA04234B
:101D600039461198ADF8E030CDF8DC800AE000BFCC
:101D7000384002244040022464B5029034400224DA
:101D800038B4029012F040FA119928460EF04AFC3D
:101D9000202205210298FFF75FF8002256230298BF
:101DA0001146CDF800900DF0F5FE2A22334631465B
:101DB000029800960EF0C4F8314602980DF091FE9C
:101DC000052339460298ADF8DC300EF0F4F907210E
:101DD00002980DF0CCFE192102980DF0F3FE0121BE
:101DE00002980DF0A5FE029928460EF01BFC652313
:101DF0004E228D210093C5231898FFF7ECF9384641
:101E0000C4F868B9A4F86C69FFF726FA04F67413ED
:101E100097E8070083E80700684B04F648371B681B
:101E2000002B3FF411AC664B1B88012B7FF616ACE0
:101E30000121DAF8000000F0C1FD624A03460321E7
:101E4000384618F059FEC4F8807923A918981EAFB7
:101E5000ADF89090CDF88C8012F0D6F918992846FC
:101E60000EF0E0FB54220998D721FEF7F5FF0999FF
:101E70003846C4F8B4B9A4F8B8694FF0130911F0A2
:101E800029FF099B97E807003C33CDF88C80ADF81B
:101E9000906083E8070023A9099812F0B5F94B2355
:101EA0000999284684F8BA390EF0BCFB8B221998A0
:101EB0004FF49E71FEF7D0FF23A91998ADF88C60FE
:101EC00012F09CFD199928460EF0ACFB0B221C98D1
:101ED0004123CDF800904FF4CD71FFF77CF94FF01E
:101EE0007F431C992846C4F8203A03F57F03C4F8C1
:101EF000243A0123A4F8283A0EF094FB0E220A9803
:101F000040F29D11FEF7A8FF0A993846C4F85CBA62
:101F1000A4F8606A11F0DEFE0A9B97E807003C33E4
:101F2000CDF88C8083E807001C2323A90A98ADF81C
:101F3000903012F069F90A9928460EF073FB4E238F
:101F400061221A9800934021FFF745F94FF4A063EE
:101F50001A98B421C4F8A03AC4F8A43A4FF42073F4
:101F6000C4F8AC6AC4F8A83A4023C4F8B43A4FF4B1
:101F70003453C4F8B03A11F0B5F8134B1A99284607
:101F8000C4F8C83A4FF4BF53A4F8CC3A1D9BC4F828
:101F90009C3A0EF047FB77221B985521FEF75CFF19
:101FA00023A91B98ADF88C9012F028FD28461B99A8
:101FB0000EF038FB20463BB0BDE8F08F34400224E1
:101FC0003840022464B5029000FF15FF7047704747
:101FD00070474160704710B50022B1F90840B1F96F
:101FE0000A10028042808480C18010BD7047704713
:101FF000012303727047704770477047704743680A
:1020000000F110011A681846526E1047436800F13B
:1020100010011A681846126E1047704710B4C46851
:10202000034641686210E4079B6801EB020048BF69
:102030008A585DF8044B48BFD358184743682BB102
:1020400083682BB9C06800F00100704718467047DC
:102050000120704710B504460C2127F001F82046F6
:1020600010BD10B504464FF4AE7126F0F9FF2046BE
:1020700010BD10B50446102126F0F2FF204610BD19
:1020800010B50446382126F0EBFF204610BD10B5F0
:102090000446282126F0E4FF204610BD10B515F0B7
:1020A000A1F80368BDE81040DB6B184713B5044680
:1020B000807A0130637AC0B29842A07205D90123B8
:1020C00023720023A37202B010BDB4F90C200021CA
:1020D00017F074F983B213F0010226D1E081174B97
:1020E000E1891B8816485B1A228BB0F900009BB26D
:1020F000ADF8060019B26068D31A2183ADF800105C
:102100000021ADF80430ADF80210694603681B6980
:102110009847A37A012BD6D10A4B1B78002BD2D03B
:1021200015F060F815F064F8CDE74FF6FF71002860
:10213000D8BF0A461344E381D1E700BFD03F022451
:10214000D23F0224DA3F0224044B1B6893F8582044
:102150000AB1D86C00B99868704700BFDC3F022410
:10216000F8B5044617460E4615F074F9144B0025D1
:10217000C4F854711C602946124BC4F83C512360CA
:10218000114BC4F84051C4F84431104BC4F84851C5
:102190001868C4F84C51C4F85051C4F85861036829
:1021A0009B689847284600F0CFFBFFF7CDFF1EF055
:1021B00052FEFFF7C9FF1EF0C9FE2046F8BD00BF62
:1021C000304002244CB8029034B80290DC3F022424
:1021D000064BC0F84801C0F84C310023C0F850311C
:1021E00000F5A273C0F84031704700BF5123009042
:1021F000064BC0F84801C0F84C310023C0F85031FC
:1022000000F5A273C0F84031704700BF2925009047
:102210002DE9F047074690689946884603681546B9
:10222000DDF820A01B6A9847DB2805D8424BA32184
:10223000424A434827F09CFF686803681B6A984736
:102240000F2803D83F4BA4213C4AF2E7E868036813
:102250001B6A98470B2803D83B4BA521374AE8E770
:1022600014F0C0FF043015F023F8D9F8000010B1C5
:102270000368DB689847D9F8000010B103681B6851
:102280009847386810B103685B699847D8F8000030
:1022900010B103685B689847386810B103681B6821
:1022A0009847D8F8000010B103689B689847E86821
:1022B000002103685B6A9847044620B1002343600D
:1022C0000372224B0360A868002103685B6A984789
:1022D000064608B1FEF73CFA6868002103685B6AAD
:1022E0009847054610B13146FEF74CFAC9F8004050
:1022F000C8F800503E60E5B12B1DCAF800303046EA
:10230000C5F808A03368F563DB6898472B68284652
:102310001B6898472146304617F04AF82368204644
:102320001B699847236820465B6998472846BDE8A3
:10233000F0872B46E1E700BFE0B80290F5BA0290C3
:102340006EB90290AFB9029052BA0290A0B8029052
:1023500007B5D0F8583100F59E710093044BD0F8C2
:1023600054210448FFF754FF03B05DF804FB00BF9D
:1023700024400224204002242DE9F84F07469068AB
:102380009946884603689346DDF828A01B6A98475B
:1023900042F27373984205D85A4BA3215A4A5B48BC
:1023A00027F0E6FEDBF8040003681B6A98470F2855
:1023B00003D8574BA421544AF1E7DBF80C0003681B
:1023C0001B6A9847372803D8524BA5214E4AE6E7A7
:1023D00014F008FF043014F06BFFD9F8000010B1BE
:1023E0000368DB689847D9F8000010B103681B68E0
:1023F0009847386810B103685B699847D8F80000BF
:1024000010B103685B689847386810B103681B68AF
:102410009847D8F8000010B103689B689847DBF82C
:102420000C00002103685B6A9847044600282FD0FF
:10243000394B002500F11006282203601423456063
:102440002946057243728572C581304627F00BFF1D
:102450000123A582304684F83530304BE582236174
:102460002F4B2583B3F900102E4B6583A583E5839D
:10247000258465842586658684F83450A181B3F966
:102480000050FEF770FC236930462946DB6B984705
:10249000DBF80800002103685B6A9847064608B12C
:1024A000FEF79AF9DBF80400002103685B6A98479D
:1024B000054610B13146FEF701FCC9F80040C8F8E6
:1024C00000503E60E5B12B1DCAF800303046C5F81B
:1024D00008A03368F563DB6898472B6828461B68BB
:1024E00098472146304616F063FF236820461B6953
:1024F0009847236820465B6998472846BDE8F88FCF
:102500002B46E1E7E0B80290F9BB02906EB9029069
:10251000AFB9029052BA0290C4B80290CCB7029000
:10252000D03F0224D23F022407B5D0F8583100F53D
:102530009E710093044BD0F854210448FFF71CFF10
:1025400003B05DF804FB00BF2440022420400224B5
:10255000704710B504462C2126F082FD204610BDA0
:1025600030B5194D8FB02C78BFF35B8F14F0010498
:1025700026D1284626F04BFD10B33F23022201212D
:102580000A940993114B12480893124B07930C239A
:10259000CDE9053204235F22CDE9033160230E49E2
:1025A00000936F23CDE90B44CDE9014400F06AF8B4
:1025B000284626F038FD094A0949054826F04BFD12
:1025C00003480FB030BD00BFA40100245CF10290AD
:1025D000A8010024ECEE02900000209000000024EE
:1025E0005125009013B5002249B102AB019203F8C6
:1025F000052D0268946801AAA04702B010BD0846E4
:10260000FBE7C0897047008A7047C08870478088A0
:102610007047807A00F07F007047807AC009704769
:10262000002070479FED010A704700BF00000000C6
:10263000406A7047806A70478B88C069DB0A0A6805
:1026400050F823001044704710B5C2B1137BB3B1EA
:10265000547BD27A240204F4E0641443026A98B2F0
:1026600002EB840213888B4202D192F9020010BD62
:1026700005D80138043280B20028F3D1F7E70020F2
:10268000F5E7000030B58BB00446BDF86050089502
:10269000BDF85C5007959DF8505006959DF84C503C
:1026A00005959DF8485004959DF8445003959DF874
:1026B000405002959DF83C500195BDF8385000956A
:1026C00016F044FA064B20462360159BE361169BE7
:1026D0002362199B63621A9BA3620BB030BD00BFDB
:1026E00028BD029030B5174D8FB02C78BFF35B8FAB
:1026F00014F0010423D1284626F089FCF8B1124BCE
:10270000602212490893124B019407930123114848
:102710000493CDE905330423CDE902431423CDE925
:102720000B4400931723CDE90944FFF7ABFF28467C
:1027300026F079FC084A0949064826F08CFC054831
:102740000FB030BDD401002430F902903405209040
:10275000F0EE0290D80100240000002451250090E2
:1027600030B5184D8FB02C78BFF35B8F14F0010497
:1027700024D1284626F04BFC00B33F235F221249A8
:102780000993124B0A940893114B01940793012368
:1027900010480493CDE905330423CDE902430A230D
:1027A000CDE90B4400930C23FFF76CFF284626F07D
:1027B0003AFC094A0949074826F04DFC05480FB084
:1027C00030BD00BF0402002444BC2390F4EE02900C
:1027D0002CF90290080200240000002451250090EA
:1027E00010B5002404600C6014601C6010BD7047BC
:1027F00010B50446042126F033FC204610BD012903
:1028000008B508D003D3022909D0002002E000F067
:1028100013F8006808BD00F00FF84068FAE700F010
:102820000BF88068F6E70000004870479CBD0290F6
:10283000152070471D20704700487047340200245F
:1028400010B5054CFFF74EFF2060FFF789FE606072
:10285000FFF786FFA06010BD3402002400207047FF
:10286000002070470EB403B503AB002153F8042BCE
:10287000019315F077FC02B05DF804EB03B07047EC
:102880000CB407B504AB53F8042B019315F06AFCA4
:1028900003B05DF804EB02B07047000010B5436C64
:1028A000044673B3038F2BB9184BC521184A194836
:1028B00027F05EFCC38E00EB43035B8C0BB317F079
:1028C00073FB238F012B03D8134BCB21134AEEE765
:1028D000E28E40F63F10531C9BB2092B194688BF6D
:1028E000A3F10A0104EB4101498C814209D10A2B71
:1028F00004EB420228BF0023508C04EB43035884AE
:1029000051842046BDE8104017F050BA40BF0290F5
:102910006DC0029049BF02908DBF02909BBF029094
:1029200017F00DBA10B586B002AC84E806001A465E
:102930000AAB214605930193099B0093089B13F072
:10294000EFFF06B010BD000038B5D8B9114B1248E2
:102950001B681249BBB11A689C681A441C44026087
:102960005A681A440A606CB10D4B00221A80FFF7B6
:1029700063FF0546FFF75EFF0A4B1C600A4B1D60B4
:102980000A4B188038BD0A4B03600A4B0B600A4B98
:102990001C68E8E7400200244402002448020024A6
:1029A0004C020024344002243C40022438400224DB
:1029B00088CA2390D4C9239084CA2390044B1B68EF
:1029C00053F82100034B1B6803EB4000704700BF26
:1029D0004802002444020024012380F8781080F883
:1029E000793070470020704741640031024B18BFB6
:1029F00001211970704700BFDB3F0224002070479F
:102A0000836B0BB10846184770474FF6FF7070474D
:102A1000406803689B69184780F82610704790F853
:102A20002600704710B50022B1F90840B1F90A102C
:102A3000028042808480C18010BD002202804280DA
:102A40008280C28070470177704780ED080A704726
:102A500080F82410704780F82510704701207047D7
:102A6000983070478C30704784307047034B902209
:102A700083F85A2383F85823704700BF00E100E031
:102A8000094A0A49D3680A48C3F30A03013B9BB2C7
:102A90000B801169C1F30A01013901801364536B82
:102AA00043F0010353637047001000508602002476
:102AB00084020024014B986A704700BF84100050C4
:102AC000024B0122996243F8602C70478410005039
:102AD0007047704770477047242303FB01010023B0
:102AE00081F82430704780F82C10704710B50446E8
:102AF000302126F0B5FA204610BD10B504462C2131
:102B000026F0AEFA204610BD10B50446BC2126F0D2
:102B1000A7FA204610BD000010B531B90A4B40F2AB
:102B2000D2210A4A0A4827F023FBC0E90F120032DB
:102B3000084918BF01220A7019460268BDE8104012
:102B4000D2F88C20104700BF02C3029093D00290AD
:102B50003AC30290DA3F022408B5094B1B888B4226
:102B600003D8084B1B88934205D9074B9E21074A7F
:102B7000074827F0FDFA074B1980074B1A8008BD5C
:102B8000D03F0224D23F02249FC2029050D0029034
:102B90003AC30290D63F0224D83F022408B531B18F
:102BA000044B4FF49171044A044827F0E1FA90F87D
:102BB000250008BD1CC2029020C6029030C20290BF
:102BC00010B531B1064B4FF48E71064A064827F016
:102BD000CFFA406811460368BDE810401B6B1847E8
:102BE0001CC202906BCC029030C2029008B531B189
:102BF000044B4FF48A71044A044827F0B9FAC068BC
:102C000008BD00BF1CC20290B2CD029030C202903B
:102C100070B504460D4629B10D4B5E210D4A0E4894
:102C200027F0A6FA406811460368DB689847606899
:102C300003689B6A98472368E060294684F8285017
:102C400020465E6A01222B46B446BDE870406047CC
:102C50001CC202900CCA029030C202902DE9F041D1
:102C6000044617460D4629B10E4B4E210E4A0F4819
:102C700027F07EFA40683946026896681A46B047DF
:102C8000606803689B6A98472368E060294684F877
:102C9000285020465E6A01222B46B446BDE8F0412A
:102CA000604700BF1CC2029098C8029030C20290D8
:102CB00008B529B1054B4021054A064827F058FAC6
:102CC00081600161C0E9053208BD00BF1CC20290ED
:102CD00043C7029030C2029038B504460DF08BFF16
:102CE00023685D6E14F07EFA01462046A8472368EB
:102CF000064A2046D3F888500023A2F57F31A84722
:102D00006268034B5A64034A536038BD00FC03D029
:102D100044030024540200240DF054BF0DF05EBFA4
:102D20000DF01ABF0EF07BB810B504460EF0A2FCF1
:102D300023682046D3F8AC30BDE8104018470EF0A9
:102D40002FB890F87A301BB1406803681B681847A9
:102D50001846704710B590F8784090F834100C4B36
:102D60008C421A7809D03AB90A490B4A0888148863
:102D7000108001220C801A7010BD002AFCD0064A77
:102D80000449148808880C8010800022F3E700BFF3
:102D9000D43F0224D23F0224D03F0224134A00230E
:102DA000F0B5C2F88430BFF34F8FD2F8803043F6CD
:102DB000E076C3F3C904C3F34E33A5075B0103EA0E
:102DC000060C284621464CEA0007013900F1404034
:102DD000C2F874724F1CF6D1203B13F1200FEED1D4
:102DE000BFF34F8FBFF36F8FF0BD00BF00ED00E06A
:102DF000034B5B69DB0301D5FFF7D0BF704700BF12
:102E000000ED00E0034B5B69DB0301D5FFF7C6BFB4
:102E1000704700BF00ED00E070B5044629B1274BB4
:102E20006E21274A274827F0A3F9052A2BD8DFE887
:102E300002F003252B30373F406803681B69984731
:102E400008B3012384F82530002384F82630A360DA
:102E5000236194F82730B3B96468236820469B6ADD
:102E60009847236805462046DB6A984785420AD181
:102E7000236820469B69BDE870401847002380F80E
:102E8000253080F8263070BDC3610023A360236124
:102E9000F9E7C361012380F8263080F82830F4E791
:102EA0000023012280F8253080F82630C261EDE74A
:102EB000003318BF012380F82730E4E71CC20290DA
:102EC00079C3029030C202902DE9F34105461646BF
:102ED000984629B1164BE921164A174827F048F9B8
:102EE000406803681B699847F8B1144C01212068B9
:102EF0000EF022FC41460746684615F0F9FA104BE1
:102F0000BDF902101B886868BDF9002003FB01228F
:102F1000016807EB4202CD693146A8472068036883
:102F2000DB6A02B0BDE8F041184702B0BDE8F081AD
:102F30001CC2029000CF029030C20290DC3F0224FB
:102F4000D63F022408B590F8243033B1084B40F244
:102F50006B11084A084827F00BF9012280F8242059
:102F6000184681F83430CB860B870B6308BD00BF51
:102F70006FC202904BCB029030C20290F8B504466B
:102F800029B13F4BA9213F4A3F4827F0F1F890F87B
:102F900025301BB990F82630002B6FD03B4B002713
:102FA0001B6893F86B10236984F826700B44236127
:102FB00094F82830002B54D01368104665685B697C
:102FC0009847E6692B682EB331465B6A28469847D6
:102FD0002B68E6692846DB6A98478642E7612CBF82
:102FE000002601262B6828469B6A9847A368E06064
:102FF0000133A360A069D4E904325A43A368434370
:103000009A4239D994F82C1069BB012184F8281010
:103010003046F8BD226A62B12846D3E90973984761
:10302000216A01442846B847A368226A26621344ED
:10303000A36094F827602B6826B19B6928469847BF
:103040000646CFE79B6A284698472B6807462846DE
:10305000DB6A9847874201D22B68EEE784F8256047
:10306000C0E70126C6E7D31AB3FBF0F30BB923621E
:10307000CBE7013B2362C9E70021C7E70126C7E789
:103080001CC20290E6C4029030C20290DC3F0224CF
:10309000034B4FF080629A604FF080729A607047E5
:1030A00000E100E0084B4FF08062C3F88820BFF3D6
:1030B0004F8FBFF36F8F4FF08072C3F88820BFF33C
:1030C0004F8FBFF36F8F704700E100E070B5294E5E
:1030D0003578BFF35B8F15F0010548D1304625F0F8
:1030E00096FF002843D0244C244B04F13400256182
:1030F000E58425856585A585C4E90035C4E90255C3
:1031000015F067FC04F1580010F0E6FC1C4B20465B
:10311000A3651C4B40F8843BFEF7DEF81A4B3046A3
:10312000C4F89050C4F884302433C4F89C50C4F8D8
:103130008C306423C4F8A450A4F8A030002384F891
:10314000A850C4F8AC30C4F8B030C4F8B430C4F8F7
:10315000B8300E4B84F8A95084F8AA50C4F89830BF
:1031600025F061FF0A4A20460A4925F074FF02480B
:1031700070BD00BF5002002488020024C8E0029005
:1031800020C1029098C102907CE002905CE0029025
:1031900000000024D32A009010B5144C236823B3F8
:1031A000134B144A1B6C11888B4213D1124B198894
:1031B00006F0FEF8226892F86A30013382F86A302D
:1031C00000F0F6FA20680EF055FA0020BDE8104035
:1031D00001F068BB06F0ECF8206803681B6A9847AA
:1031E0000020BDE8104001F083BB10BDDC3F02248D
:1031F00000100050860200248402002410B504460A
:10320000482125F02DFF204610BD000038B5144D93
:10321000144C284600F0F8FC22461349284625F0B5
:103220001AFF1248124B012212490360002380F852
:10323000272080F82C20224680F8243080F8253082
:1032400080F8263080F828304360C0E90233C0E9B6
:103250000433C0E90633BDE8384025F0FCBE00BFAA
:103260004403002400000024D72A009054020024C4
:10327000E4C10290D12A009003685B6C18470120DA
:10328000704700000F4B82B0D3F8D42042F01002F8
:10329000C3F8D420D3F8D42002F010020192019A8E
:1032A000DA6F42F01002DA67DA6F22F01002DA67A2
:1032B000054B064A1A62064B4FF080629A6002B0D4
:1032C000704700BF00440258F44A0224DD320090E7
:1032D00000E100E040F2EF3070470000024B1B6855
:1032E000586803685B691847DC3F022408B50B285F
:1032F0000BD8DFE800F01206100A0A0A0A080808CC
:103300000808012008BD0520FCE7054B6621054A99
:10331000054826F02DFF0020F4E70220F2E700BF69
:10332000FBD00290CED1029016D1029008B50A28A7
:1033300009D8DFE800F010060E080808080606069F
:103340000600012008BD054B8721054A054826F0E7
:103350000FFF0020F6E70220F4E700BFFBD0029049
:1033600018D2029016D10290F8B50C46487FFFF7AC
:10337000BDFF0546A77F3846FFF7B8FF064638462B
:10338000FFF7D4FFA38A628BD21A494B1A64A18A31
:10339000628B521A9A61A18A228B521A1A6158635F
:1033A000A18AE28A42EA01425A642269DA636268C7
:1033B000DA602268402A70D010D8042A3BD0202A34
:1033C0006BD0237F45EA0365394B45F40035DD6159
:1033D000617FA27F914267D0364A4BE0B2F5807F91
:1033E0001BD0B2F5007F23D0802AEAD1A068021D4D
:1033F000DA62227F45EA026545F40035DD615E62EE
:1034000022695A610278EAB1012A35D02A4B40F28A
:1034100011112A4A2A4826F0ABFE217F294A42EAA6
:103420000162DA61E2681A625E6222695A6120E032
:10343000217F254AF3E7227F45EA026545F40035FE
:10344000DD61F1E7D9694288501E21F47F420121F4
:1034500022F0100242EA0022DA61154BDA6942F0EA
:103460002002DA61DA699206FCD410229A600029FF
:10347000B2D0164A1A60F8BDDA69408822F47F4259
:10348000217F013822F01002FF3942F0100218BFEC
:10349000012142EA0022DA61DFE7237F45EA036582
:1034A000034B45F40035CBE740F20122E2E700BFD1
:1034B0000010005201020100E1D0029090D1029070
:1034C00016D102900A000200090002000102020067
:1034D00010B5887F0C46FFF729FF1C4B5863A18A63
:1034E000E28A42EA01425A642269DA63628BA18A63
:1034F000521A1A642268082A16D1A18A628B521ABB
:103500009A61A18A628B521A1A615862104A217F0D
:1035100042EA0162DA61E2681A6222695A6122694A
:10352000DA600C4A1A6010BD0022D8611A61E168A5
:103530000A0A4809C1F3C40102F4784200F4FC60AD
:1035400002430A439A63044AECE700BF00100052AA
:10355000090001000102020001020300054B4FF0C7
:1035600080620360044BC3F88820BFF34F8FBFF322
:103570006F8F704748D1029000E100E010B504461B
:10358000FFF7ECFF40F6A451204625F069FD2046E8
:1035900010BD0000012309491C2203720868084B72
:1035A00002FB0030007E20B1086802FB003001F011
:1035B00049B8086802FB003001F002B8BC3B0024A7
:1035C0000C00002410B590F8A03D0446ABB9036888
:1035D0009B6A9847174B1A681C235343164AD35CBF
:1035E000012B09D1154A126832B9227A22B984F81E
:1035F000A03D2046FFF7CEFF10BD037A4BB100235C
:1036000003721C200B4B1A680B4B00FB023001F0BD
:103610009BF8606803681B6898470028ECD1637AC0
:10362000002BE9D0236884F8A00D20465B6ABDE832
:1036300010401847BC3B00240C000024B83B002479
:1036400010B50446406803681B68984758B9637A08
:103650004BB1237A3BB984F8A03D20462368BDE8EE
:1036600010405B6A1847084B1A681C235343074AEB
:10367000D35C012B06D1227A22B984F8A03D2046E2
:10368000FFF788FF10BD00BFBC3B00240C000024E6
:1036900070B505460B4B0C3000262C466022686046
:1036A0002E726E7244F8203B21460EF041F905F56A
:1036B0005A63E6602434A342FBD185F8A06D284606
:1036C00070BD00BF48D10290034B1A68D207FCD4EA
:1036D00023229A60704700BF0010005230B5104C92
:1036E0002568ED07FCD423250904FF2BA56041F0D4
:1036F00001014FF0020565636164E0630AD0094986
:10370000656241EA0363E361074B22626061E06046
:10371000236030BDE561039BA363044BF8E700BF62
:103720000010005209000100010002000100030026
:103730000121002208B508460AF079FF0A4B1860FB
:1037400028B90A4B28210A4A0A4826F011FD00220E
:10375000042101200BF00CF8074B186018B9074B37
:103760002C21034AF0E708BD9003002463D20290A5
:1037700017D30290ACD202908C030024D5D20290D1
:10378000024B4FF0FF3118680AF09CBF90030024F1
:10379000014B18680AF0C2BF90030024024B0021BD
:1037A00018680AF08FBF00BF90030024FFF7F0BF36
:1037B0000023034803491A4600680BF015B800BF00
:1037C0008C0300240400002413B50023074C01A936
:1037D0001A4620680BF03AF84FF0FF33002201A997
:1037E00020680BF033F802B010BD00BF8C0300243A
:1037F0007047704770477047012070473820704706
:10380000382303FB010008307047382303FB010015
:10381000083070470120704742F27470704742F2DE
:10382000747303FB01000830704742F2747303FBAA
:10383000010008307047012070471020704700EBEE
:1038400001100830704700EB01100830704708463F
:10385000FEF7BEBC034B10B5044603600CF016F92E
:10386000204610BDB8D3029010B50446FFF7F2FF12
:103870004021204625F0F4FB204610BD034B10B537
:10388000044603600CF002F9204610BD84D3029078
:1038900010B50446FFF7F2FF42F27C71204625F096
:1038A000DFFB204610BD0000034B10B5044603604B
:1038B0000CF0ECF8204610BD50D3029010B5044631
:1038C000FFF7F2FF1821204625F0CAFB204610BD65
:1038D000094B10B50446036000F51E502830FFF771
:1038E000B9FF04F12C00FFF7C9FF04F11400FFF742
:1038F000DBFF204610BD00BFECD3029010B504469C
:10390000FFF7E6FF42F64811204625F0A9FB2046C6
:1039100010BD00002DE9F341FEF786FF00240546A7
:10392000FEF786FF2346014622462846009417F0FC
:1039300089F9274B274A2046274D1A60FFF704F8DC
:10394000264B274A27489A6017F0E4F82B78BFF3F4
:103950005B8FDB0736D4284625F059FB002831D091
:10396000214C224F04F1140004F12C0807F1440605
:103970001F4B6060C4F80880E760266123600CF08C
:1039800087F81C4B404663610CF082F81A4B3846AE
:10399000E3620CF07DF8194B07F140003B60FCF747
:1039A000FFFE224607F140013046FDF7C5F93046DB
:1039B000FEF70EFC284625F036FB114A1149204639
:1039C00025F049FB104802B0BDE8F04100F0E0BE30
:1039D000404002242C3B002494030024303B00246C
:1039E000E02C00240800002498030024402B00242D
:1039F000ECD3029050D3029084D30290B8D30290BB
:103A000000000024D1380090A43A00247047000040
:103A1000014800F0D3BE00BFA43A002410B504460C
:103A2000042125F01DFB204610BD10B50446882159
:103A300025F016FB204610BD10B504461C2125F0CC
:103A40000FFB204610BD10B50446882125F008FB69
:103A5000204610BD2DE9F041414C424D424B2246DB
:103A6000424F284642492B6025F0F5FA414E384630
:103A7000FFF70EFE22464049384625F0ECFADFF803
:103A8000388130461BF0B6FB22463C49304625F0D3
:103A9000E2FA404614F03EFD22463949404625F000
:103AA000DAFA22463749384825F0D5FA3748002354
:103AB00001223749C560038580F82A30C362038636
:103AC00080F8483080F8492080F84A3080F84B3040
:103AD000436580F858304366816680F86C3080F822
:103AE0006D3080F86E302B49C0E90176C0E90433AF
:103AF000C0E90633C0E90833C0E90E33C0E910332A
:103B0000C0E91333C0E9173380F86F3080F87A20AA
:103B100080F87B20204AC0F8803010604FF4F072AB
:103B200080F870300A801D4943670A804FF488721C
:103B30001B4980F878300A801A4980F879300A8069
:103B4000194A80F834301370C0F88430174A184B83
:103B500002602246C3671749BDE8F04125F07BBAF1
:103B600000000024FC2C00247CD70290002D0024AF
:103B7000F1370090303B00245D350090F337009022
